{
  "transactions": [
    {
      "hash": "0xc6cd0327190d63912c0b90557f26e3a3506d4daef10beb133ef92166a311f8e9",
      "transactionType": "CALL",
      "contractName": null,
      "contractAddress": "0xd3a3ffc410f9fbca3d5989defcc45d7b2eead74b",
      "function": "fillIntent((address,(address,uint256,bytes)[],(uint8,uint256,bytes32,uint16),uint256,uint256,bytes),bytes)",
      "arguments": [
        "(0x586da40079FDec68ec6fFF65bA184f5Df77b01E5, [(0x0000000000000000000000000000000000000805, 1000000000000000000, 0x1fc9b1413cba5f549c02a4da782cadb65564d0e8159f339f5610db4bd5773f36c760f97c000000000000000000000000000000000000000000000000000000003b9aca000000000000000000000000000000000000000000000000000000000000000136)], (1, 1, 0x3cba5f549c02a4da782cadb65564d0e8159f339f5610db4bd5773f36c760f97c, 310), 1779097644, 1779094044, 0x2ffff5fbb41105ddd971dd27ce65cb1b631886e9fdc3a46398dde9e4ddf43d8c7775ab20fff23080009ca9fae6013ad568f41658a6ed49bf7702118d0983ece31b)",
        "0x"
      ],
      "transaction": {
        "from": "0x586da40079fdec68ec6fff65ba184f5df77b01e5",
        "to": "0xd3a3ffc410f9fbca3d5989defcc45d7b2eead74b",
        "value": "0xde0b6b3a7640000",
        "input": "0x431882c800000000000000000000000000000000000000000000000000000000000000400000000000000000000000000000000000000000000000000000000000000320000000000000000000000000586da40079fdec68ec6fff65ba184f5df77b01e50000000000000000000000000000000000000000000000000000000000000120000000000000000000000000000000000000000000000000000000000000000100000000000000000000000000000000000000000000000000000000000000013cba5f549c02a4da782cadb65564d0e8159f339f5610db4bd5773f36c760f97c0000000000000000000000000000000000000000000000000000000000000136000000000000000000000000000000000000000000000000000000006a0ae02c000000000000000000000000000000000000000000000000000000006a0ad21c00000000000000000000000000000000000000000000000000000000000002600000000000000000000000000000000000000000000000000000000000000001000000000000000000000000000000000000000000000000000000000000002000000000000000000000000000000000000000000000000000000000000008050000000000000000000000000000000000000000000000000de0b6b3a7640000000000000000000000000000000000000000000000000000000000000000006000000000000000000000000000000000000000000000000000000000000000641fc9b1413cba5f549c02a4da782cadb65564d0e8159f339f5610db4bd5773f36c760f97c000000000000000000000000000000000000000000000000000000003b9aca0000000000000000000000000000000000000000000000000000000000000001360000000000000000000000000000000000000000000000000000000000000000000000000000000000000000000000000000000000000000000000412ffff5fbb41105ddd971dd27ce65cb1b631886e9fdc3a46398dde9e4ddf43d8c7775ab20fff23080009ca9fae6013ad568f41658a6ed49bf7702118d0983ece31b000000000000000000000000000000000000000000000000000000000000000000000000000000000000000000000000000000000000000000000000000000",
        "nonce": "0x28",
        "chainId": "0x3b1"
      },
      "additionalContracts": [],
      "isFixedGasLimit": false
    }
  ],
  "receipts": [
    {
      "status": "0x1",
      "cumulativeGasUsed": "0x25ef9",
      "logs": [
        {
          "address": "0xd3a3ffc410f9fbca3d5989defcc45d7b2eead74b",
          "topics": [
            "0x5b1262570e9bc0917a8379826b6677e05f69a4987ce1d71e0ac77406ee8edad5",
            "0x000000000000000000000000586da40079fdec68ec6fff65ba184f5df77b01e5",
            "0x000000000000000000000000586da40079fdec68ec6fff65ba184f5df77b01e5"
          ],
          "data": "0x000000000000000000000000000000000000000000000000000000006a0ad21c",
          "blockHash": "0x46e2e176c8f558edaef916ce4c303f2fff40342391657a079bb5bf188d3bbae4",
          "blockNumber": "0x6d1027",
          "transactionHash": "0xc6cd0327190d63912c0b90557f26e3a3506d4daef10beb133ef92166a311f8e9",
          "transactionIndex": "0x0",
          "logIndex": "0x0",
          "removed": false
        }
      ],
      "logsBloom": "0x00000000000000000000000000000000000000000000002000000000000000000000000000000000000000000000000000000000000000000000000000000001000000000000000000000000000000000400000002000000000010000000000000000000000000000040004040000000000000000000000000000000000000000000000000000000000000000000000000000000000080000000000000000000000000000000000000000000000000000000000000000000000000000000000000000000000000000000000000000000000000000000000000000000000000000000000000000000000000000000000000000000000000000000000000000000",
      "type": "0x0",
      "transactionHash": "0xc6cd0327190d63912c0b90557f26e3a3506d4daef10beb133ef92166a311f8e9",
      "transactionIndex": "0x0",
      "blockHash": "0x46e2e176c8f558edaef916ce4c303f2fff40342391657a079bb5bf188d3bbae4",
      "blockNumber": "0x6d1027",
      "gasUsed": "0x25ef9",
      "effectiveGasPrice": "0x4b018c943",
      "from": "0x586da40079fdec68ec6fff65ba184f5df77b01e5",
      "to": "0xd3a3ffc410f9fbca3d5989defcc45d7b2eead74b",
      "contractAddress": null
    }
  ],
  "libraries": [],
  "pending": [],
  "returns": {},
  "timestamp": 1779094070,
  "chain": 945,
  "commit": "1997dc8"
}