{
  "transactions": [
    {
      "hash": null,
      "transactionType": "CALL",
      "contractName": null,
      "contractAddress": "0x7f48beb07ab98e55cdb4800b0223d42c575d17c1",
      "function": "fillIntent((address,(address,uint256,bytes)[],(uint8,uint256,bytes32,uint16),uint256,uint256,bytes),bytes)",
      "arguments": [
        "(0x586da40079FDec68ec6fFF65bA184f5Df77b01E5, [(0x0000000000000000000000000000000000000805, 100000000000000000, 0x1fc9b1413cba5f549c02a4da782cadb65564d0e8159f339f5610db4bd5773f36c760f97c0000000000000000000000000000000000000000000000000000000005f5e1000000000000000000000000000000000000000000000000000000000000000136)], (1, 1, 0x3cba5f549c02a4da782cadb65564d0e8159f339f5610db4bd5773f36c760f97c, 310), 1779096612, 1007, 0x373ddfa1a623565c8d17d19d05e89e5c38bd318cbda894a215ce86e56fcd0f4d0730c95eb9cb8fcb032d826b3bf613088c42dbc9e0eae728c9e49bc47a0580811b)",
        "0x"
      ],
      "transaction": {
        "from": "0x586da40079fdec68ec6fff65ba184f5df77b01e5",
        "to": "0x7f48beb07ab98e55cdb4800b0223d42c575d17c1",
        "value": "0x16345785d8a0000",
        "input": "0x431882c800000000000000000000000000000000000000000000000000000000000000400000000000000000000000000000000000000000000000000000000000000320000000000000000000000000586da40079fdec68ec6fff65ba184f5df77b01e50000000000000000000000000000000000000000000000000000000000000120000000000000000000000000000000000000000000000000000000000000000100000000000000000000000000000000000000000000000000000000000000013cba5f549c02a4da782cadb65564d0e8159f339f5610db4bd5773f36c760f97c0000000000000000000000000000000000000000000000000000000000000136000000000000000000000000000000000000000000000000000000006a0adc2400000000000000000000000000000000000000000000000000000000000003ef0000000000000000000000000000000000000000000000000000000000000260000000000000000000000000000000000000000000000000000000000000000100000000000000000000000000000000000000000000000000000000000000200000000000000000000000000000000000000000000000000000000000000805000000000000000000000000000000000000000000000000016345785d8a0000000000000000000000000000000000000000000000000000000000000000006000000000000000000000000000000000000000000000000000000000000000641fc9b1413cba5f549c02a4da782cadb65564d0e8159f339f5610db4bd5773f36c760f97c0000000000000000000000000000000000000000000000000000000005f5e1000000000000000000000000000000000000000000000000000000000000000136000000000000000000000000000000000000000000000000000000000000000000000000000000000000000000000000000000000000000000000041373ddfa1a623565c8d17d19d05e89e5c38bd318cbda894a215ce86e56fcd0f4d0730c95eb9cb8fcb032d826b3bf613088c42dbc9e0eae728c9e49bc47a0580811b000000000000000000000000000000000000000000000000000000000000000000000000000000000000000000000000000000000000000000000000000000",
        "nonce": "0x25",
        "chainId": "0x3b1"
      },
      "additionalContracts": [],
      "isFixedGasLimit": false
    }
  ],
  "receipts": [],
  "libraries": [],
  "pending": [],
  "returns": {},
  "timestamp": 1779093039,
  "chain": 945,
  "commit": "1997dc8"
}