{
  "transactions": [
    {
      "hash": null,
      "transactionType": "CALL",
      "contractName": null,
      "contractAddress": "0x7f48beb07ab98e55cdb4800b0223d42c575d17c1",
      "function": "fillIntent((address,(address,uint256,bytes)[],(uint8,uint256,bytes32,uint16),uint256,uint256,bytes),bytes)",
      "arguments": [
        "(0x586da40079FDec68ec6fFF65bA184f5Df77b01E5, [(0x0000000000000000000000000000000000000805, 100000000000000000, 0x1fc9b1413cba5f549c02a4da782cadb65564d0e8159f339f5610db4bd5773f36c760f97c0000000000000000000000000000000000000000000000000000000005f5e1000000000000000000000000000000000000000000000000000000000000000136)], (1, 1, 0x3cba5f549c02a4da782cadb65564d0e8159f339f5610db4bd5773f36c760f97c, 310), 1779096576, 1004, 0xf26c26eb2b169ec1bd183c21ac122c3115ac89241ea7fac5de5b7a525bd67bc768291137eb8d4ff7d25d8d0f54c82e0a50487a1fea86e8210b5790ab3cefde801c)",
        "0x"
      ],
      "transaction": {
        "from": "0x586da40079fdec68ec6fff65ba184f5df77b01e5",
        "to": "0x7f48beb07ab98e55cdb4800b0223d42c575d17c1",
        "value": "0x16345785d8a0000",
        "input": "0x431882c800000000000000000000000000000000000000000000000000000000000000400000000000000000000000000000000000000000000000000000000000000320000000000000000000000000586da40079fdec68ec6fff65ba184f5df77b01e50000000000000000000000000000000000000000000000000000000000000120000000000000000000000000000000000000000000000000000000000000000100000000000000000000000000000000000000000000000000000000000000013cba5f549c02a4da782cadb65564d0e8159f339f5610db4bd5773f36c760f97c0000000000000000000000000000000000000000000000000000000000000136000000000000000000000000000000000000000000000000000000006a0adc0000000000000000000000000000000000000000000000000000000000000003ec0000000000000000000000000000000000000000000000000000000000000260000000000000000000000000000000000000000000000000000000000000000100000000000000000000000000000000000000000000000000000000000000200000000000000000000000000000000000000000000000000000000000000805000000000000000000000000000000000000000000000000016345785d8a0000000000000000000000000000000000000000000000000000000000000000006000000000000000000000000000000000000000000000000000000000000000641fc9b1413cba5f549c02a4da782cadb65564d0e8159f339f5610db4bd5773f36c760f97c0000000000000000000000000000000000000000000000000000000005f5e1000000000000000000000000000000000000000000000000000000000000000136000000000000000000000000000000000000000000000000000000000000000000000000000000000000000000000000000000000000000000000041f26c26eb2b169ec1bd183c21ac122c3115ac89241ea7fac5de5b7a525bd67bc768291137eb8d4ff7d25d8d0f54c82e0a50487a1fea86e8210b5790ab3cefde801c000000000000000000000000000000000000000000000000000000000000000000000000000000000000000000000000000000000000000000000000000000",
        "nonce": "0x25",
        "chainId": "0x3b1"
      },
      "additionalContracts": [],
      "isFixedGasLimit": false
    },
    {
      "hash": null,
      "transactionType": "CALL",
      "contractName": null,
      "contractAddress": "0x7f48beb07ab98e55cdb4800b0223d42c575d17c1",
      "function": "fillIntent((address,(address,uint256,bytes)[],(uint8,uint256,bytes32,uint16),uint256,uint256,bytes),bytes)",
      "arguments": [
        "(0x586da40079FDec68ec6fFF65bA184f5Df77b01E5, [(0x0000000000000000000000000000000000000805, 0, 0x7d691e303cba5f549c02a4da782cadb65564d0e8159f339f5610db4bd5773f36c760f97c0000000000000000000000000000000000000000000000000000000002faf0800000000000000000000000000000000000000000000000000000000000000136)], (0, 40000000000000000, 0x0000000000000000000000000000000000000000000000000000000000000000, 0), 1779096576, 1005, 0x52a59270ca5e25c014eb22a37025a0c7e86d63b13aea5c05ed76875d5631f90d45a7b703b5a1a325e97ce27f154737b3facc377176ba2928b1d8387e0af90ba91c)",
        "0x"
      ],
      "transaction": {
        "from": "0x586da40079fdec68ec6fff65ba184f5df77b01e5",
        "to": "0x7f48beb07ab98e55cdb4800b0223d42c575d17c1",
        "value": "0x0",
        "input": "0x431882c800000000000000000000000000000000000000000000000000000000000000400000000000000000000000000000000000000000000000000000000000000320000000000000000000000000586da40079fdec68ec6fff65ba184f5df77b01e500000000000000000000000000000000000000000000000000000000000001200000000000000000000000000000000000000000000000000000000000000000000000000000000000000000000000000000000000000000008e1bc9bf04000000000000000000000000000000000000000000000000000000000000000000000000000000000000000000000000000000000000000000000000000000000000000000000000000000000000000000000000000000000000000000006a0adc0000000000000000000000000000000000000000000000000000000000000003ed00000000000000000000000000000000000000000000000000000000000002600000000000000000000000000000000000000000000000000000000000000001000000000000000000000000000000000000000000000000000000000000002000000000000000000000000000000000000000000000000000000000000008050000000000000000000000000000000000000000000000000000000000000000000000000000000000000000000000000000000000000000000000000000006000000000000000000000000000000000000000000000000000000000000000647d691e303cba5f549c02a4da782cadb65564d0e8159f339f5610db4bd5773f36c760f97c0000000000000000000000000000000000000000000000000000000002faf080000000000000000000000000000000000000000000000000000000000000013600000000000000000000000000000000000000000000000000000000000000000000000000000000000000000000000000000000000000000000004152a59270ca5e25c014eb22a37025a0c7e86d63b13aea5c05ed76875d5631f90d45a7b703b5a1a325e97ce27f154737b3facc377176ba2928b1d8387e0af90ba91c000000000000000000000000000000000000000000000000000000000000000000000000000000000000000000000000000000000000000000000000000000",
        "nonce": "0x26",
        "chainId": "0x3b1"
      },
      "additionalContracts": [],
      "isFixedGasLimit": false
    },
    {
      "hash": null,
      "transactionType": "CALL",
      "contractName": null,
      "contractAddress": "0x7f48beb07ab98e55cdb4800b0223d42c575d17c1",
      "function": "fillIntent((address,(address,uint256,bytes)[],(uint8,uint256,bytes32,uint16),uint256,uint256,bytes),bytes)",
      "arguments": [
        "(0x586da40079FDec68ec6fFF65bA184f5Df77b01E5, [(0x0000000000000000000000000000000000000805, 0, 0x7d691e303cba5f549c02a4da782cadb65564d0e8159f339f5610db4bd5773f36c760f97c00000000000000000000000000000000000000000000000000000000009896800000000000000000000000000000000000000000000000000000000000000136), (0x0000000000000000000000000000000000000805, 20000000000000000, 0x1fc9b1413cba5f549c02a4da782cadb65564d0e8159f339f5610db4bd5773f36c760f97c0000000000000000000000000000000000000000000000000000000001312d000000000000000000000000000000000000000000000000000000000000000136)], (1, 1, 0x3cba5f549c02a4da782cadb65564d0e8159f339f5610db4bd5773f36c760f97c, 310), 1779096576, 1006, 0x9f3fbdd4836736fcb75dd2fcd20dadb306d4afc684e32617c0d1669673a245c0339b7b4b5a9ef554c8c20bebe5ba5c4f54f4c4c05294916b1da4986484ab41361c)",
        "0x"
      ],
      "transaction": {
        "from": "0x586da40079fdec68ec6fff65ba184f5df77b01e5",
        "to": "0x7f48beb07ab98e55cdb4800b0223d42c575d17c1",
        "value": "0x2386f26fc10000",
        "input": "0x431882c800000000000000000000000000000000000000000000000000000000000000400000000000000000000000000000000000000000000000000000000000000440000000000000000000000000586da40079fdec68ec6fff65ba184f5df77b01e50000000000000000000000000000000000000000000000000000000000000120000000000000000000000000000000000000000000000000000000000000000100000000000000000000000000000000000000000000000000000000000000013cba5f549c02a4da782cadb65564d0e8159f339f5610db4bd5773f36c760f97c0000000000000000000000000000000000000000000000000000000000000136000000000000000000000000000000000000000000000000000000006a0adc0000000000000000000000000000000000000000000000000000000000000003ee000000000000000000000000000000000000000000000000000000000000038000000000000000000000000000000000000000000000000000000000000000020000000000000000000000000000000000000000000000000000000000000040000000000000000000000000000000000000000000000000000000000000014000000000000000000000000000000000000000000000000000000000000008050000000000000000000000000000000000000000000000000000000000000000000000000000000000000000000000000000000000000000000000000000006000000000000000000000000000000000000000000000000000000000000000647d691e303cba5f549c02a4da782cadb65564d0e8159f339f5610db4bd5773f36c760f97c0000000000000000000000000000000000000000000000000000000000989680000000000000000000000000000000000000000000000000000000000000013600000000000000000000000000000000000000000000000000000000000000000000000000000000000000000000000000000000000000000000080500000000000000000000000000000000000000000000000000470de4df820000000000000000000000000000000000000000000000000000000000000000006000000000000000000000000000000000000000000000000000000000000000641fc9b1413cba5f549c02a4da782cadb65564d0e8159f339f5610db4bd5773f36c760f97c0000000000000000000000000000000000000000000000000000000001312d0000000000000000000000000000000000000000000000000000000000000001360000000000000000000000000000000000000000000000000000000000000000000000000000000000000000000000000000000000000000000000419f3fbdd4836736fcb75dd2fcd20dadb306d4afc684e32617c0d1669673a245c0339b7b4b5a9ef554c8c20bebe5ba5c4f54f4c4c05294916b1da4986484ab41361c000000000000000000000000000000000000000000000000000000000000000000000000000000000000000000000000000000000000000000000000000000",
        "nonce": "0x27",
        "chainId": "0x3b1"
      },
      "additionalContracts": [],
      "isFixedGasLimit": false
    }
  ],
  "receipts": [],
  "libraries": [],
  "pending": [],
  "returns": {},
  "timestamp": 1779092987,
  "chain": 945,
  "commit": "1997dc8"
}