{
  "transactions": [
    {
      "hash": null,
      "transactionType": "CALL",
      "contractName": null,
      "contractAddress": "0xd3a3ffc410f9fbca3d5989defcc45d7b2eead74b",
      "function": "fillIntent((address,(address,uint256,bytes)[],(uint8,uint256,bytes32,uint16),uint256,uint256,bytes),bytes)",
      "arguments": [
        "(0x586da40079FDec68ec6fFF65bA184f5Df77b01E5, [(0x0000000000000000000000000000000000000805, 1000000000000000000, 0x1fc9b1413cba5f549c02a4da782cadb65564d0e8159f339f5610db4bd5773f36c760f97c000000000000000000000000000000000000000000000000000000003b9aca000000000000000000000000000000000000000000000000000000000000000136)], (1, 1, 0x3cba5f549c02a4da782cadb65564d0e8159f339f5610db4bd5773f36c760f97c, 310), 1779097488, 1779093888, 0xa28f870d67462c5736caee5228b008002e2eef5f2f9b8cd1f37c229056e93c516d18b93092855987af0357bfdfe39575550f978bc4ef737dbd786848567123e81b)",
        "0x"
      ],
      "transaction": {
        "from": "0x586da40079fdec68ec6fff65ba184f5df77b01e5",
        "to": "0xd3a3ffc410f9fbca3d5989defcc45d7b2eead74b",
        "value": "0xde0b6b3a7640000",
        "input": "0x431882c800000000000000000000000000000000000000000000000000000000000000400000000000000000000000000000000000000000000000000000000000000320000000000000000000000000586da40079fdec68ec6fff65ba184f5df77b01e50000000000000000000000000000000000000000000000000000000000000120000000000000000000000000000000000000000000000000000000000000000100000000000000000000000000000000000000000000000000000000000000013cba5f549c02a4da782cadb65564d0e8159f339f5610db4bd5773f36c760f97c0000000000000000000000000000000000000000000000000000000000000136000000000000000000000000000000000000000000000000000000006a0adf90000000000000000000000000000000000000000000000000000000006a0ad18000000000000000000000000000000000000000000000000000000000000002600000000000000000000000000000000000000000000000000000000000000001000000000000000000000000000000000000000000000000000000000000002000000000000000000000000000000000000000000000000000000000000008050000000000000000000000000000000000000000000000000de0b6b3a7640000000000000000000000000000000000000000000000000000000000000000006000000000000000000000000000000000000000000000000000000000000000641fc9b1413cba5f549c02a4da782cadb65564d0e8159f339f5610db4bd5773f36c760f97c000000000000000000000000000000000000000000000000000000003b9aca000000000000000000000000000000000000000000000000000000000000000136000000000000000000000000000000000000000000000000000000000000000000000000000000000000000000000000000000000000000000000041a28f870d67462c5736caee5228b008002e2eef5f2f9b8cd1f37c229056e93c516d18b93092855987af0357bfdfe39575550f978bc4ef737dbd786848567123e81b000000000000000000000000000000000000000000000000000000000000000000000000000000000000000000000000000000000000000000000000000000",
        "nonce": "0x26",
        "chainId": "0x3b1"
      },
      "additionalContracts": [],
      "isFixedGasLimit": false
    }
  ],
  "receipts": [],
  "libraries": [],
  "pending": [],
  "returns": {},
  "timestamp": 1779093922,
  "chain": 945,
  "commit": "1997dc8"
}