{
  "transactions": [
    {
      "hash": null,
      "transactionType": "CALL",
      "contractName": null,
      "contractAddress": "0x7f48beb07ab98e55cdb4800b0223d42c575d17c1",
      "function": "fillIntent((address,(address,uint256,bytes)[],(uint8,uint256,bytes32,uint16),uint256,uint256,bytes),bytes)",
      "arguments": [
        "(0x586da40079FDec68ec6fFF65bA184f5Df77b01E5, [(0x0000000000000000000000000000000000000805, 100000000000000000, 0x1fc9b1413cba5f549c02a4da782cadb65564d0e8159f339f5610db4bd5773f36c760f97c0000000000000000000000000000000000000000000000000000000005f5e1000000000000000000000000000000000000000000000000000000000000000136)], (1, 1, 0x3cba5f549c02a4da782cadb65564d0e8159f339f5610db4bd5773f36c760f97c, 310), 1779097272, 1007, 0x63ffbcae011ce562c272e9213eb0fa49c9037bc285e0871fea8460a24503783d4bd6ea63f69759932a6bb3c9cdac9a9befa56d86a21fec04abef8a7e155eb56f1c)",
        "0x"
      ],
      "transaction": {
        "from": "0x586da40079fdec68ec6fff65ba184f5df77b01e5",
        "to": "0x7f48beb07ab98e55cdb4800b0223d42c575d17c1",
        "value": "0x16345785d8a0000",
        "input": "0x431882c800000000000000000000000000000000000000000000000000000000000000400000000000000000000000000000000000000000000000000000000000000320000000000000000000000000586da40079fdec68ec6fff65ba184f5df77b01e50000000000000000000000000000000000000000000000000000000000000120000000000000000000000000000000000000000000000000000000000000000100000000000000000000000000000000000000000000000000000000000000013cba5f549c02a4da782cadb65564d0e8159f339f5610db4bd5773f36c760f97c0000000000000000000000000000000000000000000000000000000000000136000000000000000000000000000000000000000000000000000000006a0adeb800000000000000000000000000000000000000000000000000000000000003ef0000000000000000000000000000000000000000000000000000000000000260000000000000000000000000000000000000000000000000000000000000000100000000000000000000000000000000000000000000000000000000000000200000000000000000000000000000000000000000000000000000000000000805000000000000000000000000000000000000000000000000016345785d8a0000000000000000000000000000000000000000000000000000000000000000006000000000000000000000000000000000000000000000000000000000000000641fc9b1413cba5f549c02a4da782cadb65564d0e8159f339f5610db4bd5773f36c760f97c0000000000000000000000000000000000000000000000000000000005f5e100000000000000000000000000000000000000000000000000000000000000013600000000000000000000000000000000000000000000000000000000000000000000000000000000000000000000000000000000000000000000004163ffbcae011ce562c272e9213eb0fa49c9037bc285e0871fea8460a24503783d4bd6ea63f69759932a6bb3c9cdac9a9befa56d86a21fec04abef8a7e155eb56f1c000000000000000000000000000000000000000000000000000000000000000000000000000000000000000000000000000000000000000000000000000000",
        "nonce": "0x25",
        "chainId": "0x3b1"
      },
      "additionalContracts": [],
      "isFixedGasLimit": false
    }
  ],
  "receipts": [],
  "libraries": [],
  "pending": [],
  "returns": {},
  "timestamp": 1779093686,
  "chain": 945,
  "commit": "1997dc8"
}